{
  "_format": "hh-sol-artifact-1",
  "contractName": "RedeemTokensSigner",
  "sourceName": "contracts/RedeemTokensSigner.sol",
  "abi": [
    {
      "inputs": [
        {
          "internalType": "address",
          "name": "tokenAddress",
          "type": "address"
        },
        {
          "internalType": "address",
          "name": "multisigAddress",
          "type": "address"
        },
        {
          "internalType": "address",
          "name": "initialSignerAddress",
          "type": "address"
        }
      ],
      "stateMutability": "nonpayable",
      "type": "constructor"
    },
    {
      "anonymous": false,
      "inputs": [
        {
          "indexed": true,
          "internalType": "bytes32",
          "name": "role",
          "type": "bytes32"
        },
        {
          "indexed": true,
          "internalType": "bytes32",
          "name": "previousAdminRole",
          "type": "bytes32"
        },
        {
          "indexed": true,
          "internalType": "bytes32",
          "name": "newAdminRole",
          "type": "bytes32"
        }
      ],
      "name": "RoleAdminChanged",
      "type": "event"
    },
    {
      "anonymous": false,
      "inputs": [
        {
          "indexed": true,
          "internalType": "bytes32",
          "name": "role",
          "type": "bytes32"
        },
        {
          "indexed": true,
          "internalType": "address",
          "name": "account",
          "type": "address"
        },
        {
          "indexed": true,
          "internalType": "address",
          "name": "sender",
          "type": "address"
        }
      ],
      "name": "RoleGranted",
      "type": "event"
    },
    {
      "anonymous": false,
      "inputs": [
        {
          "indexed": true,
          "internalType": "bytes32",
          "name": "role",
          "type": "bytes32"
        },
        {
          "indexed": true,
          "internalType": "address",
          "name": "account",
          "type": "address"
        },
        {
          "indexed": true,
          "internalType": "address",
          "name": "sender",
          "type": "address"
        }
      ],
      "name": "RoleRevoked",
      "type": "event"
    },
    {
      "anonymous": false,
      "inputs": [
        {
          "indexed": true,
          "internalType": "address",
          "name": "token",
          "type": "address"
        },
        {
          "indexed": true,
          "internalType": "address",
          "name": "account",
          "type": "address"
        },
        {
          "indexed": true,
          "internalType": "address",
          "name": "signer",
          "type": "address"
        },
        {
          "indexed": false,
          "internalType": "uint256",
          "name": "internalId",
          "type": "uint256"
        },
        {
          "indexed": false,
          "internalType": "uint256",
          "name": "amount",
          "type": "uint256"
        }
      ],
      "name": "TokensRedeemed",
      "type": "event"
    },
    {
      "inputs": [],
      "name": "DEFAULT_ADMIN_ROLE",
      "outputs": [
        {
          "internalType": "bytes32",
          "name": "",
          "type": "bytes32"
        }
      ],
      "stateMutability": "view",
      "type": "function"
    },
    {
      "inputs": [],
      "name": "SIGNER_ROLE",
      "outputs": [
        {
          "internalType": "bytes32",
          "name": "",
          "type": "bytes32"
        }
      ],
      "stateMutability": "view",
      "type": "function"
    },
    {
      "inputs": [
        {
          "internalType": "bytes32",
          "name": "role",
          "type": "bytes32"
        }
      ],
      "name": "getRoleAdmin",
      "outputs": [
        {
          "internalType": "bytes32",
          "name": "",
          "type": "bytes32"
        }
      ],
      "stateMutability": "view",
      "type": "function"
    },
    {
      "inputs": [
        {
          "internalType": "bytes32",
          "name": "role",
          "type": "bytes32"
        },
        {
          "internalType": "uint256",
          "name": "index",
          "type": "uint256"
        }
      ],
      "name": "getRoleMember",
      "outputs": [
        {
          "internalType": "address",
          "name": "",
          "type": "address"
        }
      ],
      "stateMutability": "view",
      "type": "function"
    },
    {
      "inputs": [
        {
          "internalType": "bytes32",
          "name": "role",
          "type": "bytes32"
        }
      ],
      "name": "getRoleMemberCount",
      "outputs": [
        {
          "internalType": "uint256",
          "name": "",
          "type": "uint256"
        }
      ],
      "stateMutability": "view",
      "type": "function"
    },
    {
      "inputs": [
        {
          "internalType": "bytes32",
          "name": "role",
          "type": "bytes32"
        },
        {
          "internalType": "address",
          "name": "account",
          "type": "address"
        }
      ],
      "name": "grantRole",
      "outputs": [],
      "stateMutability": "nonpayable",
      "type": "function"
    },
    {
      "inputs": [
        {
          "internalType": "bytes32",
          "name": "role",
          "type": "bytes32"
        },
        {
          "internalType": "address",
          "name": "account",
          "type": "address"
        }
      ],
      "name": "hasRole",
      "outputs": [
        {
          "internalType": "bool",
          "name": "",
          "type": "bool"
        }
      ],
      "stateMutability": "view",
      "type": "function"
    },
    {
      "inputs": [
        {
          "internalType": "address",
          "name": "signer",
          "type": "address"
        },
        {
          "internalType": "uint256",
          "name": "nonce",
          "type": "uint256"
        }
      ],
      "name": "isUsedNonce",
      "outputs": [
        {
          "internalType": "bool",
          "name": "",
          "type": "bool"
        }
      ],
      "stateMutability": "view",
      "type": "function"
    },
    {
      "inputs": [],
      "name": "multisig",
      "outputs": [
        {
          "internalType": "address",
          "name": "",
          "type": "address"
        }
      ],
      "stateMutability": "view",
      "type": "function"
    },
    {
      "inputs": [
        {
          "internalType": "address",
          "name": "sender",
          "type": "address"
        },
        {
          "internalType": "address",
          "name": "signer",
          "type": "address"
        },
        {
          "internalType": "uint256",
          "name": "nonce",
          "type": "uint256"
        },
        {
          "internalType": "uint256",
          "name": "amount",
          "type": "uint256"
        },
        {
          "internalType": "uint256",
          "name": "internalId",
          "type": "uint256"
        },
        {
          "internalType": "bytes",
          "name": "signature",
          "type": "bytes"
        }
      ],
      "name": "redeem",
      "outputs": [],
      "stateMutability": "nonpayable",
      "type": "function"
    },
    {
      "inputs": [
        {
          "internalType": "bytes32",
          "name": "role",
          "type": "bytes32"
        },
        {
          "internalType": "address",
          "name": "account",
          "type": "address"
        }
      ],
      "name": "renounceRole",
      "outputs": [],
      "stateMutability": "nonpayable",
      "type": "function"
    },
    {
      "inputs": [
        {
          "internalType": "bytes32",
          "name": "role",
          "type": "bytes32"
        },
        {
          "internalType": "address",
          "name": "account",
          "type": "address"
        }
      ],
      "name": "revokeRole",
      "outputs": [],
      "stateMutability": "nonpayable",
      "type": "function"
    },
    {
      "inputs": [],
      "name": "token",
      "outputs": [
        {
          "internalType": "contract IERC20",
          "name": "",
          "type": "address"
        }
      ],
      "stateMutability": "view",
      "type": "function"
    }
  ],
  "bytecode": "0x60c06040523480156200001157600080fd5b50604051620018b1380380620018b1833981810160405260608110156200003757600080fd5b50805160208201516040909201519091906001600160a01b03831662000095576040805162461bcd60e51b815260206004820152600e60248201526d151bdad95b881c995c5d5a5c995960921b604482015290519081900360640190fd5b6001600160a01b038216620000e5576040805162461bcd60e51b8152602060048201526011602482015270135d5b1d1a5cda59c81c995c5d5a5c9959607a1b604482015290519081900360640190fd5b6001600160a01b03811662000141576040805162461bcd60e51b815260206004820152601760248201527f496e697469616c207369676e6572207265717569726564000000000000000000604482015290519081900360640190fd5b6001600160601b0319606084811b821660805283901b1660a05262000177600080516020620018918339815191526000620001a8565b62000184600033620001fa565b6200019f6000805160206200189183398151915282620001fa565b5050506200030e565b600082815260208190526040808220600201549051839285917fbd79b86ffe0ab8e8776151514217cd7cacd52c909f66475c3af44e129f0b00ff9190a460009182526020829052604090912060020155565b6200020682826200020a565b5050565b6000828152602081815260409091206200022f918390620009da62000283821b17901c565b1562000206576200023f620002a3565b6001600160a01b0316816001600160a01b0316837f2f8788117e7eff1d82e926ec794901d17c78024a50270940304540a733656f0d60405160405180910390a45050565b60006200029a836001600160a01b038416620002a7565b90505b92915050565b3390565b6000620002b58383620002f6565b620002ed575081546001818101845560008481526020808220909301849055845484825282860190935260409020919091556200029d565b5060006200029d565b60009081526001919091016020526040902054151590565b60805160601c60a05160601c61152c620003656000398061041f5280610620528061071352806108395280610d295250806105f152806107455280610817528061087552806109b85280610cf8525061152c6000f3fe608060405234801561001057600080fd5b50600436106100cf5760003560e01c80639010d07c1161008c578063a217fddf11610066578063a217fddf146102b4578063ca15c873146102bc578063d547741f146102d9578063fc0c546a14610305576100cf565b80639010d07c1461025d57806391d1485414610280578063a1ebf35d146102ac576100cf565b80630ee60fa7146100d4578063248a9ca3146101145780632f2ff15d1461014357806336568abe146101715780634783c35b1461019d57806355f81549146101c1575b600080fd5b610100600480360360408110156100ea57600080fd5b506001600160a01b03813516906020013561030d565b604080519115158252519081900360200190f35b6101316004803603602081101561012a57600080fd5b503561033b565b60408051918252519081900360200190f35b61016f6004803603604081101561015957600080fd5b50803590602001356001600160a01b0316610350565b005b61016f6004803603604081101561018757600080fd5b50803590602001356001600160a01b03166103bc565b6101a561041d565b604080516001600160a01b039092168252519081900360200190f35b61016f600480360360c08110156101d757600080fd5b6001600160a01b0382358116926020810135909116916040820135916060810135916080820135919081019060c0810160a082013564010000000081111561021e57600080fd5b82018360208201111561023057600080fd5b8035906020019184600183028401116401000000008311171561025257600080fd5b509092509050610441565b6101a56004803603604081101561027357600080fd5b50803590602001356108e6565b6101006004803603604081101561029657600080fd5b50803590602001356001600160a01b0316610905565b61013161091d565b610131610941565b610131600480360360208110156102d257600080fd5b5035610946565b61016f600480360360408110156102ef57600080fd5b50803590602001356001600160a01b031661095d565b6101a56109b6565b6001600160a01b038216600090815260016020908152604080832084845290915290205460ff165b92915050565b60009081526020819052604090206002015490565b6000828152602081905260409020600201546103739061036e6109ef565b610905565b6103ae5760405162461bcd60e51b815260040180806020018281038252602f8152602001806113fb602f913960400191505060405180910390fd5b6103b882826109f3565b5050565b6103c46109ef565b6001600160a01b0316816001600160a01b0316146104135760405162461bcd60e51b815260040180806020018281038252602f8152602001806114c8602f913960400191505060405180910390fd5b6103b88282610a5c565b7f000000000000000000000000000000000000000000000000000000000000000081565b336001600160a01b03881614610496576040805162461bcd60e51b81526020600482015260156024820152740a6cadcc8cae440c8decae640dcdee840dac2e8c6d605b1b604482015290519081900360640190fd5b60008381526002602052604090205460ff16156104fa576040805162461bcd60e51b815260206004820152601860248201527f496e7465726e616c20696420616c726561647920757365640000000000000000604482015290519081900360640190fd5b6105048686610ac5565b6000838152600260209081526040808320805460ff191660011790558051601f8501839004830281018301909152838152610564918a918a918a918a918a91908a908a9081908401838280828437600092019190915250610b6592505050565b9050866001600160a01b0316816001600160a01b0316146105c4576040805162461bcd60e51b81526020600482015260156024820152740a6d2cedccae440c8decae640dcdee840dac2e8c6d605b1b604482015290519081900360640190fd5b6105ee7fe2f4eaae4a9751e85a3e4a7b9587827a877f29914755229b07a7b2da98285f7082610ba3565b847f00000000000000000000000000000000000000000000000000000000000000006001600160a01b03166370a082317f00000000000000000000000000000000000000000000000000000000000000006040518263ffffffff1660e01b815260040180826001600160a01b0316815260200191505060206040518083038186803b15801561067c57600080fd5b505afa158015610690573d6000803e3d6000fd5b505050506040513d60208110156106a657600080fd5b505110156106fb576040805162461bcd60e51b815260206004820152601e60248201527f4d756c74697369672062616c616e6365206973206e6f7420656e6f7567680000604482015290519081900360640190fd5b60408051636eb1769f60e11b81526001600160a01b037f000000000000000000000000000000000000000000000000000000000000000081166004830152306024830152915187927f0000000000000000000000000000000000000000000000000000000000000000169163dd62ed3e916044808301926020929190829003018186803b15801561078b57600080fd5b505afa15801561079f573d6000803e3d6000fd5b505050506040513d60208110156107b557600080fd5b5051101561080a576040805162461bcd60e51b815260206004820152601d60248201527f546f6b656e20616c6c6f77616e6365206973206e6f7420656e6f756768000000604482015290519081900360640190fd5b61085f6001600160a01b037f0000000000000000000000000000000000000000000000000000000000000000167f00000000000000000000000000000000000000000000000000000000000000003388610bf5565b866001600160a01b0316886001600160a01b03167f00000000000000000000000000000000000000000000000000000000000000006001600160a01b03167fac65a15a5b02e7840daced4d427edaeed5e382268b8efdec85fa600f9c373f818789604051808381526020018281526020019250505060405180910390a45050505050505050565b60008281526020819052604081206108fe9083610c55565b9392505050565b60008281526020819052604081206108fe9083610c61565b7fe2f4eaae4a9751e85a3e4a7b9587827a877f29914755229b07a7b2da98285f7081565b600081565b600081815260208190526040812061033590610c76565b60008281526020819052604090206002015461097b9061036e6109ef565b6104135760405162461bcd60e51b815260040180806020018281038252603081526020018061144c6030913960400191505060405180910390fd5b7f000000000000000000000000000000000000000000000000000000000000000081565b60006108fe836001600160a01b038416610c81565b3390565b6000828152602081905260409020610a0b90826109da565b156103b857610a186109ef565b6001600160a01b0316816001600160a01b0316837f2f8788117e7eff1d82e926ec794901d17c78024a50270940304540a733656f0d60405160405180910390a45050565b6000828152602081905260409020610a749082610ccb565b156103b857610a816109ef565b6001600160a01b0316816001600160a01b0316837ff6391f5c32d9c69d2a47ea670b442974b53935d1edc7fd64eb21e047a839171b60405160405180910390a45050565b6001600160a01b038216600090815260016020908152604080832084845290915290205460ff1615610b33576040805162461bcd60e51b8152602060048201526012602482015271139bdb98d948185b1c9958591e481d5cd95960721b604482015290519081900360640190fd5b6001600160a01b039091166000908152600160208181526040808420948452939052919020805460ff19169091179055565b600080610b7d8888888888610b78610ce0565b610ce4565b90506000610b8a82610da5565b9050610b968185610df6565b9998505050505050505050565b610bad8282610905565b6103b8576040805162461bcd60e51b81526020600482015260146024820152734163636f756e7420686173206e6f7420726f6c6560601b604482015290519081900360640190fd5b604080516001600160a01b0380861660248301528416604482015260648082018490528251808303909101815260849091019091526020810180516001600160e01b03166323b872dd60e01b179052610c4f908590610fe1565b50505050565b60006108fe8383611097565b60006108fe836001600160a01b0384166110fb565b600061033582611113565b6000610c8d83836110fb565b610cc357508154600181810184556000848152602080822090930184905584548482528286019093526040902091909155610335565b506000610335565b60006108fe836001600160a01b038416611117565b4690565b604080516bffffffffffffffffffffffff197f0000000000000000000000000000000000000000000000000000000000000000606090811b82166020808501919091527f0000000000000000000000000000000000000000000000000000000000000000821b8316603485015299811b8216604884015297881b16605c8201523090961b6070870152608486019490945260a485019290925260c484015260e480840191909152815180840390910181526101049092019052805191012090565b604080517f19457468657265756d205369676e6564204d6573736167653a0a333200000000602080830191909152603c8083019490945282518083039094018452605c909101909152815191012090565b60008151604114610e4e576040805162461bcd60e51b815260206004820152601f60248201527f45434453413a20696e76616c6964207369676e6174757265206c656e67746800604482015290519081900360640190fd5b60208201516040830151606084015160001a7f7fffffffffffffffffffffffffffffff5d576e7357a4501ddfe92f46681b20a0821115610ebf5760405162461bcd60e51b815260040180806020018281038252602281526020018061142a6022913960400191505060405180910390fd5b8060ff16601b14158015610ed757508060ff16601c14155b15610f135760405162461bcd60e51b815260040180806020018281038252602281526020018061147c6022913960400191505060405180910390fd5b600060018783868660405160008152602001604052604051808581526020018460ff1681526020018381526020018281526020019450505050506020604051602081039080840390855afa158015610f6f573d6000803e3d6000fd5b5050604051601f1901519150506001600160a01b038116610fd7576040805162461bcd60e51b815260206004820152601860248201527f45434453413a20696e76616c6964207369676e61747572650000000000000000604482015290519081900360640190fd5b9695505050505050565b6060611036826040518060400160405280602081526020017f5361666545524332303a206c6f772d6c6576656c2063616c6c206661696c6564815250856001600160a01b03166111dd9092919063ffffffff16565b8051909150156110925780806020019051602081101561105557600080fd5b50516110925760405162461bcd60e51b815260040180806020018281038252602a81526020018061149e602a913960400191505060405180910390fd5b505050565b815460009082106110d95760405162461bcd60e51b81526004018080602001828103825260228152602001806113d96022913960400191505060405180910390fd5b8260000182815481106110e857fe5b9060005260206000200154905092915050565b60009081526001919091016020526040902054151590565b5490565b600081815260018301602052604081205480156111d3578354600019808301919081019060009087908390811061114a57fe5b906000526020600020015490508087600001848154811061116757fe5b60009182526020808320909101929092558281526001898101909252604090209084019055865487908061119757fe5b60019003818190600052602060002001600090559055866001016000878152602001908152602001600020600090556001945050505050610335565b6000915050610335565b60606111ec84846000856111f4565b949350505050565b60606111ff8561139f565b611250576040805162461bcd60e51b815260206004820152601d60248201527f416464726573733a2063616c6c20746f206e6f6e2d636f6e7472616374000000604482015290519081900360640190fd5b60006060866001600160a01b031685876040518082805190602001908083835b6020831061128f5780518252601f199092019160209182019101611270565b6001836020036101000a03801982511681845116808217855250505050505090500191505060006040518083038185875af1925050503d80600081146112f1576040519150601f19603f3d011682016040523d82523d6000602084013e6112f6565b606091505b5091509150811561130a5791506111ec9050565b80511561131a5780518082602001fd5b8360405162461bcd60e51b81526004018080602001828103825283818151815260200191508051906020019080838360005b8381101561136457818101518382015260200161134c565b50505050905090810190601f1680156113915780820380516001836020036101000a031916815260200191505b509250505060405180910390fd5b6000813f7fc5d2460186f7233c927e7db2dcc703c0e500b653ca82273b7bfad8045d85a4708181148015906111ec57505015159291505056fe456e756d657261626c655365743a20696e646578206f7574206f6620626f756e6473416363657373436f6e74726f6c3a2073656e646572206d75737420626520616e2061646d696e20746f206772616e7445434453413a20696e76616c6964207369676e6174757265202773272076616c7565416363657373436f6e74726f6c3a2073656e646572206d75737420626520616e2061646d696e20746f207265766f6b6545434453413a20696e76616c6964207369676e6174757265202776272076616c75655361666545524332303a204552433230206f7065726174696f6e20646964206e6f742073756363656564416363657373436f6e74726f6c3a2063616e206f6e6c792072656e6f756e636520726f6c657320666f722073656c66a2646970667358221220a6227e25af15f4c8244de960ce65d41692ed12b1950e3eca076bae500094ff1564736f6c634300060c0033e2f4eaae4a9751e85a3e4a7b9587827a877f29914755229b07a7b2da98285f70",
  "linkReferences": {},
  "deployedLinkReferences": {}
}